:100000000C9434000C943E000C943E000C943E0082
:100010000C943E000C943E000C943E000C943E0068
:100020000C943E000C943E000C943E000C943E0058
:100030000C943E000C943E000C943E000C943E0048
:100040000C943E000C943E000C943E000C943E0038
:100050000C943E000C943E000C943E000C943E0028
:100060000C943E000C943E0011241FBECFEFD8E04C
:10007000DEBFCDBF0E9440000C947D000C940000B8
:1000800083E08AB98BB98AB18C638AB98BB18C63EE
:100090008BB98FEF87B988B92FEF37E94AE3215041
:1000A00030404040E1F700C0000080E090E09C015B
:1000B000220F331F892F99278695822B932B009728
:1000C00011F481E090E0282F209528B93BB1AC01D4
:1000D00024E0569547952A95E1F7242F20952C7317
:1000E000337C232B2BB92FEF39E648E121503040E8
:0E00F0004040E1F700C00000DACFF894FFCFE7
:00000001FF
