:100000000C9455000C945F000C945F000C945F00FE
:100010000C945F000C945F000C945F000C945F00E4
:100020000C945F000C945F000C945F000C945F00D4
:100030000C945F000C945F000C945F000C945F00C4
:100040000C945F000C945F000C945F000C945F00B4
:100050000C945F000C945F000C945F000C945F00A4
:100060000C945F000C945F0077696572737A206E60
:100070007220340077696572737A206E72203300C3
:10008000802032312E378143006D6972656B6B338E
:100090003620692041544E454C000C12120C202091
:1000A0002020040A0A0A111F1F0E11241FBECFEFC1
:1000B000D8E0DEBFCDBF0E947F010C94F3010C9409
:1000C0000000CF93DF93EC018991882341F090E801
:1000D000980F983008F487700E940001F5CFDF91E7
:1000E000CF910895CF93DF93EC01FE018491882393
:1000F00049F090E8980F983008F487700E9400014A
:100100002196F3CFDF91CF910895CF93DF93CDB7B1
:10011000DEB761970FB6F894DEBF0FBECDBF2AE001
:10012000AE014F5F5F4F0E94B201CE0101960E9467
:10013000610061960FB6F894DEBF0FBECDBFDF91B0
:10014000CF9108955798569855985498419A429A45
:1001500089B1829581704D9982604E9984604F99E2
:1001600088608295807F4298429A99B19295917069
:100170004D9992604E9994604F9998604298892B5E
:10018000089540980C94A200579A569A559A549AFA
:100190004198429A982F92959F7090FF02C05C9A66
:1001A00001C05C9891FF02C05D9A01C05D9892FF0A
:1001B00002C05E9A01C05E98987011F05F9A01C00B
:1001C0005F984298429A80FF02C05C9A01C05C9896
:1001D00081FF02C05D9A01C05D9882FF02C05E9AF5
:1001E00001C05E9883FF02C05F9A01C05F98429889
:1001F0000E94C10087FDFCCF089540980C94C40074
:10020000409A0C94C400823031F0833031F0813058
:1002100029F480E403C080E101C080E56058860FC6
:100220000C94FD000F931F93CF93DF93EB01877026
:10023000880F880F880F805C0E94FD008E01085F88
:100240001F4FFE0184910E9400012196C017D10723
:10025000C1F760E080E0DF91CF911F910F910C9486
:100260000301579A569A559A549A389A3A9A399A53
:10027000409A429A419A8FE59AEE0197F1F700C0B1
:100280000000429840984198429A5C9A5D9A5E9824
:100290005F9842988FE090E40197F1F700C000006A
:1002A000429A5C9A5D9A5E985F9842988FE891E0D6
:1002B0000197F1F700C00000429A5C9A5D9A5E983F
:1002C0005F984298429A5C985D9A5E985F984298CF
:1002D0000E94C10087FDFCCF88E20E94FD0088E0FB
:1002E0000E94FD008CE00E94FD0086E00E94FD005F
:1002F00081E00E94FD0060E080E00C9403010E9418
:10030000310162EA70E080E00E9412016AE970E067
:1003100081E00E94120189E890E00E94720060E092
:1003200081E00E94030180E890E00E94720069E091
:1003300081E00E94030168E778E286EF9FEF0E9468
:10034000850060E082E00E94030184E790E00E9463
:10035000720060E083E00E94030188E690E00E9462
:100360007200FFCFBB272A3051F4992342F4BDE23B
:1003700090958095709561957F4F8F4F9F4F0C940E
:10038000C201BB27FA01A62F6217710581059105ED
:10039000330B30FB66F0AA27660F771F881F991F63
:1003A000AA1FA21710F0A21B63953850A9F7A05DF1
:1003B000AA3308F0A95DA19336F7B111B193108269
:1003C000CA010C94E301DC01FC01672F71917723D2
:1003D000E1F7329704C07C916D9370836291AE1700
:0A03E000BF07C8F30895F894FFCF9B
:00000001FF
