:100000000C9434000C9451000C9451000C94510049
:100010000C9451000C9451000C9451000C9451001C
:100020000C9451000C9451000C9451000C9451000C
:100030000C9451000C9451000C9451000C945100FC
:100040000C9451000C9451000C9451000C945100EC
:100050000C9451000C9451000C9451000C945100DC
:100060000C9451000C94510011241FBECFEFD8E026
:10007000DEBFCDBF12E0A0E0B1E0ECECF1E102C0E8
:1000800005900D92AC33B107D9F722E0ACE3B2E0B2
:1000900001C01D92A639B207E1F70E941C010C9421
:1000A000E4080C940000009769F09F938F938EE012
:1000B00091E09F938F930E94F4050F900F900F9003
:1000C0000F90FFCF0895CF93DF9300D0CDB7DEB769
:1000D00089E391E00E9408068BE689831A8220E07A
:1000E00042E0BE016F5F7F4F88E60E94D0010E9410
:1000F00053000F900F90DF91CF9108950F931F93AE
:10010000CF93DF9300D000D000D0CDB7DEB78C0105
:100110008BE3898321E041E0BE016F5F7F4F88E67A
:100120000E94D0010E94530046E0BE016F5F7F4FE6
:1001300088E60E940F020E94530069817A81762727
:1001400067277627072E000C880B990B0E949304D3
:1001500020E030E040E858E30E941F05F80160838A
:100160007183828393836B817C81762767277627CF
:10017000072E000C880B990B0E94930420E030E0BE
:1001800040E858E30E941F05F80164837583868365
:1001900097836D817E81762767277627072E000C4F
:1001A000880B990B0E94930420E030E040E858E36C
:1001B0000E941F05F80160877187828793872696C2
:1001C0000FB6F894DEBF0FBECDBFDF91CF911F9168
:1001D0000F910895CF93DF93EC010E947E0023ECF2
:1001E00035EF4CE151E4688179818A819B810E94DD
:1001F0001F05688379838A839B8323EC35EF4CE169
:1002000051E46C817D818E819F810E941F056C83EA
:100210007D838E839F8323EC35EF4CE151E4688529
:1002200079858A859B850E941F05688779878A87DB
:100230009B87DF91CF910895CF93DF93CDB7DEB742
:100240002C970FB6F894DEBF0FBECDBF60E970EDFE
:1002500083E090E00E945E030E948F0382E691E0BB
:100260000E94080661E082E00E94B5010E946300DE
:100270008FE891E00E9408068DEEC82E81E0D82E0E
:100280009DEFE92E91E0F92E0DE012E084ED91E072
:100290000E940806CE0101960E94EA008C818F938D
:1002A0008B818F938A818F9389818F93DF92CF92F5
:1002B0000E94F40588858F938F818F938E818F9311
:1002C0008D818F93FF92EF920E94F4058C858F931E
:1002D0008B858F938A858F9389858F931F930F9337
:1002E0000E94F4052FEF83EC99E02150804090406C
:1002F000E1F700C000000FB6F894DEBF0FBECDBF1F
:10030000C5CF84EA8093BC008091BC0087FFFCCFFE
:100310008091B900887F883051F08091B900887F42
:10032000803129F08091B900887F90E0089580E0C5
:1003300090E008958093BB0084E88093BC00809196
:10034000BC0087FFFCCF8091B900887F883151F0D5
:100350008091B900887F803429F08091B900887F2E
:1003600090E0089580E090E0089597B1906397B988
:1003700098B1662311F0906301C09F7C98B997B142
:100380009F7C97B9813031F018F0823029F00895C0
:1003900088E403C088E101C08CE08093B800089530
:1003A000FF920F931F93CF93DF93F82EEB01142F3F
:1003B000022F0E948101009761F58F2D880F0E9406
:1003C0009A01009731F5FE01412F50E034E8CF014A
:1003D0008C1B9D0B84179507ACF481918093BB0017
:1003E0003093BC008091BC0087FFFCCF8091B900A6
:1003F000887F883261F32091B900287F822F90E0B6
:1004000031F307C0011103C084E98093BC0080E090
:1004100090E0DF91CF911F910F91FF9008950F937E
:100420001F93CF93DF93D82F8B01C42F0E9481019C
:10043000009709F042C08D2F880F81600E949A01B9
:100440000097D9F5F8016C2F70E06150710924EC28
:10045000CF01801B910B861797079CF42093BC005B
:100460008091BC0087FFFCCF8091B900887F8035E8
:1004700021F08091B900887F02C08091BB008193F8
:10048000E7CFF801E60FF71F84E88093BC00809166
:10049000BC0087FFFCCF8091B900887F883521F0B0
:1004A0008091B900887F02C08091BB00808384E97D
:1004B0008093BC0020E090E001C0282F822FDF91C4
:1004C000CF911F910F910895CF93C82F873049F492
:1004D00060919402709195028DE192E00E94CB05AB
:1004E0000BC08A3019F48DE00E9464028091C00034
:1004F00085FFFCCFC093C60080E090E0CF910895C7
:100500000F931F93CF932091C00027FFFCCF209122
:10051000C00024FDCAC02091C00023FDC9C08C01C9
:10052000C091C600CD3011F0CA30B9F4E0913C0260
:10053000F0913D028AE08083B8010E946402E0915C
:100540003C02F0913D0211828EE392E090933D02D5
:1005500080933C028AE090E0ADC0C93009F4C0E26B
:1005600080EE8C0F8F3510F0C03AE0F0E0913C0245
:10057000F0913D0222E0ED38F20749F460919402D7
:10058000709195028DE192E00E94CB050BC0CF01E6
:10059000019690933D0280933C02C083B8018C2F5A
:1005A0000E946402C53191F128F4C33041F1C83092
:1005B00039F078C0C73109F448C0CF3709F072C0AC
:1005C00080913C0290913D028E53924009F008F4D4
:1005D00069C0B80188E00E946402B80180E20E940C
:1005E0006402B80188E00E94640280913C0290910C
:1005F0003D02019790933D0280933C0253C08EE3ED
:1006000092E090933D0280933C0252C080913C0264
:1006100090913D028E53924009F008F443C0B80116
:1006200088E00E946402B80180E20E946402B8017E
:1006300088E00E94640280913C0290913D02019703
:1006400090933D0280933C02E1CFE0913C02F09117
:100650003D0231978081803209F4BBCF80913C020A
:1006600090913D0222E08E339207E1F0D8F0FC0138
:10067000319780818032B1F0B80188E00E94640235
:10068000B80180E20E946402B80188E00E9464021E
:1006900080913C0290913D02019790933D0280939E
:1006A0003C02DCCF8C2F90E005C08EEF9FEF02C0A4
:1006B0008FEF9FEFCF911F910F910895E0E9F2E046
:1006C00020E031E031832083338322830E94910430
:1006D0009B01AC0160E074E284E799E40E94FD03B1
:1006E00020E030E040E85FE30E9498030E9482052A
:1006F0000E9465047093C5006093C400E1ECF0E0D3
:10070000808188618083E2ECF0E080818660808374
:100710008EE392E090933D0280933C02089584E33F
:1007200092E09F938F930E94F4050F900F9008958D
:100730005058BB27AA270ED048C139D130F03ED13E
:1007400020F031F49F3F11F41EF42EC10EF4E09519
:10075000E7FB24C1E92F4AD180F3BA176207730778
:100760008407950718F071F49EF562C10EF4E095C8
:100770000B2EBA2FA02D0B01B90190010C01CA015B
:10078000A0011124FF27591B99F0593F50F4503E06
:1007900068F11A16F040A22F232F342F4427585FF8
:1007A000F3CF469537952795A795F0405395C9F710
:1007B0007EF41F16BA0B620B730B840BBAF09150C8
:1007C000A1F0FF0FBB1F661F771F881FC2F70EC067
:1007D000BA0F621F731F841F48F48795779567953A
:1007E000B795F7959E3F08F0B3CF9395880F08F023
:1007F0009927EE0F9795879508950CD0E6C0DED027
:1008000040F0D5D030F021F45F3F19F0C7C051114E
:1008100010C1CAC0EBD098F39923C9F35523B1F3A3
:10082000951B550BBB27AA2762177307840738F05F
:100830009F5F5F4F220F331F441FAA1FA9F333D0BE
:100840000E2E3AF0E0E830D091505040E695001C72
:10085000CAF729D0FE2F27D0660F771F881FBB1F2E
:10086000261737074807AB07B0E809F0BB0B802D08
:10087000BF01FF2793585F4F2AF09E3F510568F054
:100880008DC0D7C05F3FECF3983EDCF3869577953B
:100890006795B795F7959F5FC9F7880F911D969556
:1008A000879597F90895E1E0660F771F881FBB1FB2
:1008B000621773078407BA0720F0621B730B840B5F
:1008C000BA0BEE1F88F7E095089598D088F09F57EF
:1008D00090F0B92F9927B751A0F0D1F0660F771F8C
:1008E000881F991F1AF0BA95C9F712C0B13081F06C
:1008F0009FD0B1E008959CC0672F782F8827B85FFC
:1009000039F0B93FCCF3869577956795B395D9F7CC
:100910003EF490958095709561957F4F8F4F9F4FD6
:100920000895E89409C097FB3EF4909580957095E2
:1009300061957F4F8F4F9F4F9923A9F0F92F96E92B
:10094000BB279395F695879577956795B795F111A0
:10095000F8CFFAF4BB0F11F460FF1BC06F5F7F4F3D
:100960008F4F9F4F16C0882311F096E911C077234F
:1009700021F09EE8872F762F05C0662371F096E858
:10098000862F70E060E02AF09A95660F771F881F27
:10099000DAF7880F9695879597F9089597F99F67E5
:1009A00080E870E060E008959FEF80EC08950024F7
:1009B0000A941616170618060906089500240A94C4
:1009C00012161306140605060895092E0394000C4A
:1009D00011F4882352F0BB0F40F4BF2B11F460FFD9
:1009E00004C06F5F7F4F8F4F9F4F089557FD905802
:1009F000440F551F59F05F3F71F04795880F97FBE3
:100A0000991F61F09F3F79F087950895121613069C
:100A10001406551FF2CF4695F1DF08C016161706CB
:100A20001806991FF1CF8695710561050894089500
:100A3000E894BB2766277727CB0197F908950BD059
:100A4000C4CFB5DF28F0BADF18F0952309F0A6CFA0
:100A5000ABCF1124EECFCADFA0F3959FD1F3950F52
:100A600050E0551F629FF001729FBB27F00DB11D32
:100A7000639FAA27F00DB11DAA1F649F6627B00DC2
:100A8000A11D661F829F2227B00DA11D621F739FAB
:100A9000B00DA11D621F839FA00D611D221F749FB9
:100AA0003327A00D611D231F849F600D211D822F00
:100AB000762F6A2F11249F5750408AF0E1F0882347
:100AC0004AF0EE0FFF1FBB1F661F771F881F915054
:100AD0005040A9F79E3F510570F060CFAACF5F3F0D
:100AE000ECF3983EDCF3869577956795B795F79587
:100AF000E7959F5FC1F7FE2B880F911D969587950F
:100B000097F908957BDFE0F09E37D8F09639B8F476
:100B10009E3848F4672F782F8827985FF9CF8695FD
:100B20007795679593959539D0F3B62FB1706B0F84
:100B3000711D811D20F4879577956795939502C067
:100B40001CC077CF882371F4772321F09850872B2E
:100B5000762F07C0662311F499270DC09051862B7C
:100B600070E060E02AF09A95660F771F881FDAF729
:100B7000880F9695879597F908959F3F31F091508A
:100B800020F4879577956795B795880F911D969571
:100B9000879597F90895EF92FF920F931F93CF9344
:100BA000DF938B01DB0113962C9121FF16C0EC0122
:100BB000E12CF12C8991882371F0D8011896ED91E0
:100BC000FC911997B8010995892BA1F3EE24EA94B9
:100BD000FF24FA94EFCFC70102C08FEF9FEFCDB78C
:100BE000DEB7E6E00C94D508A0E0B0E0EAEFF5E06F
:100BF0000C94BD08FE01359661917191AF01809111
:100C00009202909193020E943506E2E00C94D9087A
:100C10000F931F93CF93DF93E0919202F091930291
:100C2000238121FF1BC0EC0100E010E0899160915D
:100C3000920270919302DB011896ED91FC91199745
:100C4000882331F00995892B89F30FEF1FEFEECF41
:100C50008AE00995892B11F4C80102C08FEF9FEF3C
:100C6000DF91CF911F910F910895ACE0B0E0EBE3DD
:100C7000F6E00C94AD087C016B018A01FC0117823F
:100C80001682838181FFBDC1CE0101964C01F7011F
:100C90009381F60193FD859193FF81916F018823E4
:100CA00009F4ABC1853239F493FD859193FF8191AD
:100CB0006F01853229F4B70190E00E941D08E7CF4B
:100CC000512C312C20E02032A0F48B3269F030F42A
:100CD000803259F0833269F420612CC08D3239F0B2
:100CE000803339F4216026C02260246023C028604C
:100CF00021C027FD27C030ED380F3A3078F426FFA9
:100D000006C0FAE05F9E300D1124532E13C08AE016
:100D1000389E300D1124332E20620CC08E3221F407
:100D200026FD6BC1206406C08C3611F4206802C019
:100D3000883641F4F60193FD859193FF81916F010F
:100D40008111C1CF982F9F7D9554933028F40C5F6B
:100D50001F4FFFE3F9830DC0833631F0833771F005
:100D6000833509F05BC022C0F801808189830E5F62
:100D70001F4F44244394512C540115C03801F2E014
:100D80006F0E711CF801A080B18026FF03C0652D95
:100D900070E002C06FEF7FEFC5012C870E94120840
:100DA0002C0183012C852F77222E17C03801F2E009
:100DB0006F0E711CF801A080B18026FF03C0652D65
:100DC00070E002C06FEF7FEFC5012C870E9407081B
:100DD0002C012C852068222E830123FC1BC0832D2F
:100DE00090E048165906B0F4B70180E290E00E9406
:100DF0001D083A94F4CFF50127FC859127FE8191D7
:100E00005F01B70190E00E941D0831103A94F1E0B3
:100E10004F1A51084114510471F7E5C0843611F09E
:100E2000893639F5F80127FF07C060817181828119
:100E300093810C5F1F4F08C060817181882777FD07
:100E40008095982F0E5F1F4F2F76B22E97FF09C007
:100E500090958095709561957F4F8F4F9F4F20683B
:100E6000B22E2AE030E0A4010E944F08A82EA81854
:100E700044C0853729F42F7EB22E2AE030E025C009
:100E8000F22FF97FBF2E8F36C1F018F4883579F034
:100E9000B4C0803719F0883721F0AFC02F2F206100
:100EA000B22EB4FE0DC08B2D8460B82E09C024FF75
:100EB0000AC09F2F9660B92E06C028E030E005C01A
:100EC00020E130E002C020E132E0F801B7FE07C0C7
:100ED00060817181828193810C5F1F4F06C06081A8
:100EE000718180E090E00E5F1F4FA4010E944F08C7
:100EF000A82EA818FB2DFF77BF2EB6FE0BC02B2DFA
:100F00002E7FA51450F4B4FE0AC0B2FC08C02B2DED
:100F10002E7E05C07A2C2B2D03C07A2C01C0752C97
:100F200024FF0DC0FE01EA0DF11D8081803311F414
:100F3000297E09C022FF06C07394739404C0822FD7
:100F4000867809F0739423FD13C020FF06C05A2C45
:100F5000731418F4530C5718732C731468F4B701F6
:100F600080E290E02C870E941D0873942C85F5CFB9
:100F7000731410F4371801C0312C24FF12C0B701CC
:100F800080E390E02C870E941D082C8522FF17C06B
:100F900021FF03C088E590E002C088E790E0B70138
:100FA0000CC0822F867859F021FD02C080E201C07A
:100FB0008BE227FD8DE2B70190E00E941D08A51489
:100FC00038F4B70180E390E00E941D085A94F7CFEF
:100FD000AA94F401EA0DF11D8081B70190E00E940E
:100FE0001D08A110F5CF332009F451CEB70180E2DE
:100FF00090E00E941D083A94F6CFF7018681978110
:1010000002C08FEF9FEF2C96E2E10C94C908FC011F
:101010000590615070400110D8F7809590958E0F23
:101020009F1F0895FC016150704001900110D8F796
:10103000809590958E0F9F1F08950F931F93CF93C8
:10104000DF93182F092FEB018B8181FD03C08FEFF8
:101050009FEF20C082FF10C04E815F812C813D81B7
:10106000421753077CF4E881F9819F012F5F3F4FBE
:1010700039832883108306C0E885F985812F099577
:10108000892B29F72E813F812F5F3F4F3F832E838E
:10109000812F902FDF91CF911F910F910895FA0129
:1010A000AA27283051F1203181F1E8946F936E7FA7
:1010B0006E5F7F4F8F4F9F4FAF4FB1E03ED0B4E098
:1010C0003CD0670F781F891F9A1FA11D680F791FD9
:1010D0008A1F911DA11D6A0F711D811D911DA11DEA
:1010E00020D009F468943F912AE0269F11243019FA
:1010F000305D3193DEF6CF010895462F4770405D95
:101100004193B3E00FD0C9F7F6CF462F4F70405D43
:101110004A3318F0495D31FD4052419302D0A9F79E
:10112000EACFB4E0A6959795879577956795BA9598
:10113000C9F700976105710508959B01AC010A2E5E
:1011400006945795479537952795BA95C9F7620F35
:10115000731F841F951FA01D08952F923F924F92D9
:101160005F926F927F928F929F92AF92BF92CF9237
:10117000DF92EF92FF920F931F93CF93DF93CDB740
:10118000DEB7CA1BDB0B0FB6F894DEBF0FBECDBFB8
:1011900009942A88398848885F846E847D848C8489
:1011A0009B84AA84B984C884DF80EE80FD800C8192
:1011B0001B81AA81B981CE0FD11D0FB6F894DEBF75
:0C11C0000FBECDBFED010895F894FFCFE5
:1011CC0000000003000000006402800200001B5BB2
:1011DC0033313B316D417070206572726F7221201A
:1011EC006572726F725F636F6465203D2030782585
:1011FC003032580A1B5B306D0057726974652030B1
:10120C0020746F205057525F4D474D545F31207200
:10121C00656720746F2077616B657570204D505534
:10122C002E001B5B33333B316D496E697469616C05
:10123C00697A696E67205457495F546573742050FE
:10124C00726F6A6563742E2E2E0A1B5B306D001B49
:10125C005B33323B316D1B5B3134432D2D2D2D2DEA
:10126C002D2D2D2D2D2D2D2D2D2D204170706C699A
:10127C00636174696F6E2053746172746564202DA0
:10128C002D2D2D2D2D2D2D2D2D2D2D2D2D2D0A1BB7
:10129C005B306D005265616420616363656C6572DF
:1012AC006F6D6574657220646174612E00416363B7
:1012BC00656C20583A2025352E32660A004163634E
:1012CC00656C20593A2025352E32660A004163633D
:1012DC00656C205A3A2025352E32660A002A72692E
:1012EC006E672A0A001B5B33333B316D3E3E201B7D
:0C12FC005B306D001B631B5B334A00007D
:00000001FF
