:100000000C9450000C946D000C946D000C946D00D9
:100010000C946D000C946D000C946D000C946D00AC
:100020000C946D000C946D000C946D000C945603B0
:100030000C946D000C946D000C946D000C946D008C
:100040000C946D000C946D000C946D000C946D007C
:100050000C946D000C946D000C946D000C946D006C
:100060000C946D000C946D0088019101F1019A01CE
:10007000F101F101F101F101A301B801F101D30195
:10008000F101F101F101F101AC01C101F101DC016A
:10009000F101F101F101F101B501CA01F101E5013F
:1000A00011241FBECFEFD8E0DEBFCDBF11E0A0E02E
:1000B000B1E0E0EEF9E002C005900D92A43FB10777
:1000C000D9F722E0A4EFB1E001C01D92AE32B20731
:1000D000E1F70E94B3040C94EE040C94000087B185
:1000E000807F87B988B18F6088B957985F9A8AB145
:1000F0008C678AB90895AF92BF92DF92EF92FF9218
:100100000F931F93CF93DF9362E070E040E050E0E5
:10011000C1E0D0E420E2D22EAA24A394B12CFA01AB
:1001200031964330510574F426B130E00E2E02C0F2
:10013000359527950A94E2F72170332701E02027AF
:1001400021700CC04330510521F426B121702C27B9
:1001500005C029B12095221F2227221FDA01AA50AB
:10016000BE4F7D0121111FC03C913323E1F043308C
:1001700051056CF45A985B985C983BB1A501062E2A
:1001800001C0440F0A94EAF743274BB90CC043302F
:10019000510599F53091F501311105C03BB13D256F
:1001A0003BB9C093F501D7012C932BB130E0062E5B
:1001B00002C0359527950A94E2F721703327DC01B8
:1001C0002D933D93CD01AF016F5F7F4F359709F0C0
:1001D000A6CF8091F901882329F08091F501811142
:1001E0001092F5018091FA01882389F08091F40141
:1001F000882369F01092F4010AC03091F4013111A2
:10020000D2CF3BB13D273BB9C093F401CCCFDF91B6
:10021000CF911F910F91FF90EF90DF90BF90AF9023
:100220000895CF93DF93CDB7DEB7A8970FB6F894B4
:10023000DEBF0FBECDBF85E0EAE2F1E0DE015596FC
:1002400001900D928A95E1F7FE017A968FE0DF0129
:100250001D928A95E9F78CE0EEE3F1E0DE0111965C
:1002600001900D928A95E1F7FE013D9688E0DF014D
:100270001D928A95E9F787E20E94550287E20E9463
:10028000B10287E20E94B402BE016B5E7F4F87E23B
:100290000E94B70241E060E087E20E94A002BE0136
:1002A0006F5F7F4F87E20E94B702A8960FB6F8945F
:1002B000DEBF0FBECDBFDF91CF91089540E050E08B
:1002C000E0E0F0E0DC012D91CD0130E0042E02C031
:1002D000220F331F0A94E2F7E22BF32B4F5F5F4F9D
:1002E0004530510579F78091FB019091FC01E817A9
:1002F000F90709F48EC0F093FC01E093FB013197FC
:10030000EC31F10508F06DC0EC5CFF4F0C94E1049A
:1003100062E571E084E191E00E94E7046DE571E03F
:100320005CC068E671E084E191E00E94E70462E766
:1003300071E053C06DE771E084E191E00E94E70451
:1003400067E871E04AC062E571E084E191E00E94F3
:10035000E70462E971E041C062E571E084E191E0A7
:100360000E94E7046DE971E038C062E571E014C0F5
:1003700068E671E084E191E00E94E70463EB71E0DC
:100380002CC068E671E084E191E00E94E7046EEB26
:1003900071E023C068E671E084E191E00E94E70427
:1003A00068EA71E01AC069EC71E084E191E00E94B2
:1003B000E70463ED71E011C069EC71E084E191E064
:1003C0000E94E7046EED71E008C069EC71E084E121
:1003D00091E00E94E70469EE71E080E091E00E9404
:1003E000E70487E20E94550287E20E94B10287E299
:1003F0000E94B40264E171E087E20E94B70241E02A
:1004000060E087E20E94A00260E071E087E20C9465
:10041000B7020895CF93C82F84600E94EA0285E056
:100420008A95F1F700008C2F8B7F0E94EA0285E00D
:100430008A95F1F70000CF910895CF93C82F0E94BD
:10044000EA028C2FCF910C940A021F93CF93DF9373
:10045000182FD62FD07FD42B80E1689FB0011124B4
:10046000C42FC62B0E94D302812F0E94DD028D2F44
:100470000E94EA028D2F0E940A028C2F0E94EA023B
:100480008C2F0E940A02DF91CF911F910C94F602EB
:1004900048E00E9425022FEF80E792E02150804043
:1004A0009040E1F700C000000895CF93C82F8FEF70
:1004B00099EF0197F1F700C000000E94C7020E9467
:1004C000D3028C2F0E94DD0280E30E941D028FE187
:1004D0009EE40197F1F700C0000080E30E941D0236
:1004E00087EB91E00197F1F700C0000080E30E94E4
:1004F0001D0287EC90E00197F1F700C0000080E258
:100500000E941D0287EC90E00197F1F700C0000007
:100510000E94F60268E28C2F0E94480268E08C2F4D
:100520000E94480261E08C2F0E94480266E08C2FF6
:100530000E94480280E0CF91089549E00C94250282
:10054000613158F4433048F4442319F0413039F410
:10055000605C60680E94480202C081E0089580E00B
:10056000089561E00C9448026CE00C9448021F93DB
:10057000CF93DF93182FEB016991662321F0812F30
:100580000E949D02F9CFDF91CF911F91089588E0DD
:100590008093B800E9EBF0E0808190818270816007
:1005A000892B8083089584EA8093BC008091BC00ED
:1005B00087FFFCCF8091B9000895880F8093BB001E
:1005C00084EC8093BC008091BC0087FFFCCF8091BD
:1005D000B90008958093BB0084EC8093BC008091A7
:1005E000BC0087FFFCCF8091B900089584E9809317
:1005F000BC0008950F920FB6F8940F921F92112429
:100600002F923F924F925F926F927F928F929F9222
:10061000AF92BF92CF92DF92EF92FF920F931F9310
:100620002F933F934F935F936F937F938F939F93FA
:10063000AF93BF93CF93DF93EF93FF93A0912C02DF
:10064000B0912D020DB60D920EB60D920E94B80318
:1006500081110E946704A0912C02B0912D02CD91CE
:10066000CDBFDD91DEBFFF91EF91DF91CF91BF91C3
:10067000AF919F918F917F916F915F914F913F913A
:100680002F911F910F91FF90EF90DF90CF90BF902F
:10069000AF909F908F907F906F905F904F903F9022
:1006A0002F901F900F900FBE0F9008950E94FA0296
:1006B0001895CF93DF939C01FB01DC011196CD913E
:1006C000DC911297D383C2838C819D81958384832F
:1006D0008C819D81DC0113967C936E9312977D83B0
:1006E0006C8331872087F90180818F5F8083DF9160
:1006F000CF910895CF93DF93FC01A085B1858281CE
:10070000938124813581EC013D832C83C481D58183
:100710009B838A8311968D919C911297E817F90714
:1007200021F41296DC93CE931197118610868C914A
:1007300081508C93DF91CF910895E0910602F09162
:1007400007028081811103C08FEF9FEF0CC0E09101
:100750000602F09107020580F681E02D0680F78100
:10076000E02D82819381909329018093280108953F
:10077000CF92DF92EF92FF920F931F93CF93DF936D
:100780008091FD0181118FC080910202909103023E
:1007900001969093030280930202E0900202F0908F
:1007A0000302E114F104B9F480910602909107026A
:1007B0002091040230910502309307022093060233
:1007C00090930502809304028091FE018F5F8093D5
:1007D000FE010E949D038091280190912901C0E0B3
:1007E000E816F90608F44FC0D9E0E0910602F0914E
:1007F00007028081811103C08FEF9FEF11C0E0914C
:100800000602F09107020580F681E02D068117812E
:10081000D80112968D919C911397E816F90628F449
:1008200090932901809328012EC06801B2E0CB0E7D
:10083000D11CC6010E947A03F80184899589892B0D
:1008400021F0C8010C960E947A03D80156968C912B
:1008500090910102981710F480930102D89FC00173
:100860001124B601885F9D4F0E945903E0912C022C
:10087000F0912D02D80156969C918689981708F41C
:10088000B4CFC1E0B2CFE0912C02F0912D02E68905
:10089000B9E0EB9FF0011124E85FFD4F80818230C9
:1008A00040F0C1E006C0809100028F5F809300029B
:1008B000C0E08091FF018111C1E08C2FDF91CF91C9
:1008C0001F910F91FF90EF90DF90CF90089580914E
:1008D000FD01882321F081E08093FF0108951092AB
:1008E000FF0199E0E09101029E9FF0011124E85F71
:1008F000FD4F8081811106C080910102815080935B
:100900000102F0CF8091010290E049E0489F900100
:10091000499F300D1124F901E85FFD4FA181B2819B
:1009200012960D90BC91A02DB283A183255F3D4FFF
:10093000A217B30731F412962D913C91139732838D
:10094000218329E0289FF001299FF00D1124E85F01
:10095000FD4F0180F281E02D8681978190932D02D9
:1009600080932C020895CF93DF93CDB7DEB72F97F6
:100970000FB6F894DEBF0FBECDBF0E9411010E94DA
:100980006F00CE0101960E947B00DE011196FE01F0
:100990003B96AF01CF016D917D9121E0672B09F46A
:1009A00020E02193A417B507B1F70E945E012FEF55
:1009B00080E792E0215080409040E1F700C00000C5
:1009C000E0CFEE0FFF1F0590F491E02D0994FB019D
:1009D000DC0101900D920020E1F70895F894FFCF1B
:1009E00053656C656374204D6F6465000000000002
:1009F00000000000426F736800000000000000006B
:100A00000000000000000000FFFF426F736800005C
:100A1000000000000000000000000000000053651E
:100A20006C656374204D6F64650000000000000079
:100A300000004D6F64653A204175746F0054696D14
:100A4000653A20323A3435004D6F64653A20486F7C
:100A5000740054696D653A20333A3330004D6F6449
:100A6000653A2045434F0054696D653A20323A3368
:100A7000300054696D653A20313A33340054696D61
:100A8000653A20323A32350054696D653A20313A80
:100A900032350054696D653A20313A343500546975
:100AA0006D653A20323A3035004D6F64653A204525
:100AB000636F0054696D653A20313A3139005469E9
:100AC0006D653A20323A31300054696D653A203113
:040AD0003A31370080
:00000001FF
